{
  "contractName": "The_Ohara_Protocol_v2",
  "abi": [
    {
      "inputs": [],
      "stateMutability": "nonpayable",
      "type": "constructor"
    },
    {
      "anonymous": false,
      "inputs": [
        {
          "indexed": true,
          "internalType": "address",
          "name": "account",
          "type": "address"
        },
        {
          "indexed": true,
          "internalType": "address",
          "name": "operator",
          "type": "address"
        },
        {
          "indexed": false,
          "internalType": "bool",
          "name": "approved",
          "type": "bool"
        }
      ],
      "name": "ApprovalForAll",
      "type": "event"
    },
    {
      "anonymous": false,
      "inputs": [
        {
          "indexed": true,
          "internalType": "uint256",
          "name": "id",
          "type": "uint256"
        },
        {
          "indexed": true,
          "internalType": "address",
          "name": "seller",
          "type": "address"
        },
        {
          "indexed": true,
          "internalType": "address",
          "name": "buyer",
          "type": "address"
        }
      ],
      "name": "BuyerDetermined",
      "type": "event"
    },
    {
      "anonymous": false,
      "inputs": [
        {
          "indexed": true,
          "internalType": "uint256",
          "name": "id",
          "type": "uint256"
        },
        {
          "indexed": true,
          "internalType": "uint256",
          "name": "amount",
          "type": "uint256"
        },
        {
          "indexed": true,
          "internalType": "uint256",
          "name": "price",
          "type": "uint256"
        },
        {
          "indexed": false,
          "internalType": "address",
          "name": "seller",
          "type": "address"
        }
      ],
      "name": "EBookListed",
      "type": "event"
    },
    {
      "anonymous": false,
      "inputs": [
        {
          "indexed": false,
          "internalType": "uint8",
          "name": "version",
          "type": "uint8"
        }
      ],
      "name": "Initialized",
      "type": "event"
    },
    {
      "anonymous": false,
      "inputs": [
        {
          "indexed": true,
          "internalType": "uint256",
          "name": "id",
          "type": "uint256"
        },
        {
          "indexed": true,
          "internalType": "address",
          "name": "seller",
          "type": "address"
        },
        {
          "indexed": true,
          "internalType": "uint256",
          "name": "removeAmount",
          "type": "uint256"
        },
        {
          "indexed": false,
          "internalType": "address",
          "name": "canceller",
          "type": "address"
        }
      ],
      "name": "ListingCancelled",
      "type": "event"
    },
    {
      "anonymous": false,
      "inputs": [
        {
          "indexed": false,
          "internalType": "address",
          "name": "account",
          "type": "address"
        }
      ],
      "name": "Paused",
      "type": "event"
    },
    {
      "anonymous": false,
      "inputs": [
        {
          "indexed": true,
          "internalType": "uint256",
          "name": "id",
          "type": "uint256"
        },
        {
          "indexed": true,
          "internalType": "uint256",
          "name": "originalPrice",
          "type": "uint256"
        },
        {
          "indexed": true,
          "internalType": "uint256",
          "name": "currentPrice",
          "type": "uint256"
        },
        {
          "indexed": false,
          "internalType": "address",
          "name": "seller",
          "type": "address"
        },
        {
          "indexed": false,
          "internalType": "address",
          "name": "priceModifier",
          "type": "address"
        }
      ],
      "name": "PriceModified",
      "type": "event"
    },
    {
      "anonymous": false,
      "inputs": [
        {
          "indexed": true,
          "internalType": "bytes32",
          "name": "role",
          "type": "bytes32"
        },
        {
          "indexed": true,
          "internalType": "bytes32",
          "name": "previousAdminRole",
          "type": "bytes32"
        },
        {
          "indexed": true,
          "internalType": "bytes32",
          "name": "newAdminRole",
          "type": "bytes32"
        }
      ],
      "name": "RoleAdminChanged",
      "type": "event"
    },
    {
      "anonymous": false,
      "inputs": [
        {
          "indexed": true,
          "internalType": "bytes32",
          "name": "role",
          "type": "bytes32"
        },
        {
          "indexed": true,
          "internalType": "address",
          "name": "account",
          "type": "address"
        },
        {
          "indexed": true,
          "internalType": "address",
          "name": "sender",
          "type": "address"
        }
      ],
      "name": "RoleGranted",
      "type": "event"
    },
    {
      "anonymous": false,
      "inputs": [
        {
          "indexed": true,
          "internalType": "bytes32",
          "name": "role",
          "type": "bytes32"
        },
        {
          "indexed": true,
          "internalType": "address",
          "name": "account",
          "type": "address"
        },
        {
          "indexed": true,
          "internalType": "address",
          "name": "sender",
          "type": "address"
        }
      ],
      "name": "RoleRevoked",
      "type": "event"
    },
    {
      "anonymous": false,
      "inputs": [
        {
          "indexed": true,
          "internalType": "uint256",
          "name": "id",
          "type": "uint256"
        },
        {
          "indexed": true,
          "internalType": "address",
          "name": "seller",
          "type": "address"
        },
        {
          "indexed": true,
          "internalType": "address",
          "name": "buyer",
          "type": "address"
        }
      ],
      "name": "TransactionMade",
      "type": "event"
    },
    {
      "anonymous": false,
      "inputs": [
        {
          "indexed": true,
          "internalType": "address",
          "name": "operator",
          "type": "address"
        },
        {
          "indexed": true,
          "internalType": "address",
          "name": "from",
          "type": "address"
        },
        {
          "indexed": true,
          "internalType": "address",
          "name": "to",
          "type": "address"
        },
        {
          "indexed": false,
          "internalType": "uint256[]",
          "name": "ids",
          "type": "uint256[]"
        },
        {
          "indexed": false,
          "internalType": "uint256[]",
          "name": "values",
          "type": "uint256[]"
        }
      ],
      "name": "TransferBatch",
      "type": "event"
    },
    {
      "anonymous": false,
      "inputs": [
        {
          "indexed": true,
          "internalType": "address",
          "name": "operator",
          "type": "address"
        },
        {
          "indexed": true,
          "internalType": "address",
          "name": "from",
          "type": "address"
        },
        {
          "indexed": true,
          "internalType": "address",
          "name": "to",
          "type": "address"
        },
        {
          "indexed": false,
          "internalType": "uint256",
          "name": "id",
          "type": "uint256"
        },
        {
          "indexed": false,
          "internalType": "uint256",
          "name": "value",
          "type": "uint256"
        }
      ],
      "name": "TransferSingle",
      "type": "event"
    },
    {
      "anonymous": false,
      "inputs": [
        {
          "indexed": false,
          "internalType": "string",
          "name": "value",
          "type": "string"
        },
        {
          "indexed": true,
          "internalType": "uint256",
          "name": "id",
          "type": "uint256"
        }
      ],
      "name": "URI",
      "type": "event"
    },
    {
      "anonymous": false,
      "inputs": [
        {
          "indexed": false,
          "internalType": "address",
          "name": "account",
          "type": "address"
        }
      ],
      "name": "Unpaused",
      "type": "event"
    },
    {
      "inputs": [],
      "name": "DEFAULT_ADMIN_ROLE",
      "outputs": [
        {
          "internalType": "bytes32",
          "name": "",
          "type": "bytes32"
        }
      ],
      "stateMutability": "view",
      "type": "function"
    },
    {
      "inputs": [],
      "name": "currentId",
      "outputs": [
        {
          "internalType": "uint256",
          "name": "",
          "type": "uint256"
        }
      ],
      "stateMutability": "view",
      "type": "function"
    },
    {
      "inputs": [
        {
          "internalType": "uint256",
          "name": "id",
          "type": "uint256"
        }
      ],
      "name": "exists",
      "outputs": [
        {
          "internalType": "bool",
          "name": "",
          "type": "bool"
        }
      ],
      "stateMutability": "view",
      "type": "function"
    },
    {
      "inputs": [
        {
          "internalType": "bytes32",
          "name": "role",
          "type": "bytes32"
        }
      ],
      "name": "getRoleAdmin",
      "outputs": [
        {
          "internalType": "bytes32",
          "name": "",
          "type": "bytes32"
        }
      ],
      "stateMutability": "view",
      "type": "function"
    },
    {
      "inputs": [
        {
          "internalType": "bytes32",
          "name": "role",
          "type": "bytes32"
        },
        {
          "internalType": "address",
          "name": "account",
          "type": "address"
        }
      ],
      "name": "grantRole",
      "outputs": [],
      "stateMutability": "nonpayable",
      "type": "function"
    },
    {
      "inputs": [
        {
          "internalType": "bytes32",
          "name": "role",
          "type": "bytes32"
        },
        {
          "internalType": "address",
          "name": "account",
          "type": "address"
        }
      ],
      "name": "hasRole",
      "outputs": [
        {
          "internalType": "bool",
          "name": "",
          "type": "bool"
        }
      ],
      "stateMutability": "view",
      "type": "function"
    },
    {
      "inputs": [
        {
          "internalType": "uint256",
          "name": "",
          "type": "uint256"
        }
      ],
      "name": "idToMetadataUrl",
      "outputs": [
        {
          "internalType": "string",
          "name": "",
          "type": "string"
        }
      ],
      "stateMutability": "view",
      "type": "function"
    },
    {
      "inputs": [
        {
          "internalType": "uint256",
          "name": "",
          "type": "uint256"
        }
      ],
      "name": "idToPublisher",
      "outputs": [
        {
          "internalType": "bytes32",
          "name": "",
          "type": "bytes32"
        }
      ],
      "stateMutability": "view",
      "type": "function"
    },
    {
      "inputs": [
        {
          "internalType": "uint256",
          "name": "",
          "type": "uint256"
        },
        {
          "internalType": "address",
          "name": "",
          "type": "address"
        }
      ],
      "name": "listings",
      "outputs": [
        {
          "internalType": "uint256",
          "name": "price",
          "type": "uint256"
        },
        {
          "internalType": "uint256",
          "name": "listedBalance",
          "type": "uint256"
        },
        {
          "internalType": "uint256",
          "name": "buyerCounts",
          "type": "uint256"
        }
      ],
      "stateMutability": "view",
      "type": "function"
    },
    {
      "inputs": [],
      "name": "paused",
      "outputs": [
        {
          "internalType": "bool",
          "name": "",
          "type": "bool"
        }
      ],
      "stateMutability": "view",
      "type": "function"
    },
    {
      "inputs": [
        {
          "internalType": "string",
          "name": "",
          "type": "string"
        }
      ],
      "name": "publisherHasMember",
      "outputs": [
        {
          "internalType": "bool",
          "name": "",
          "type": "bool"
        }
      ],
      "stateMutability": "view",
      "type": "function"
    },
    {
      "inputs": [
        {
          "internalType": "uint256",
          "name": "",
          "type": "uint256"
        }
      ],
      "name": "publisherRevenueFeeRates",
      "outputs": [
        {
          "internalType": "uint256",
          "name": "revenueFeeRate",
          "type": "uint256"
        },
        {
          "internalType": "address",
          "name": "publisher",
          "type": "address"
        }
      ],
      "stateMutability": "view",
      "type": "function"
    },
    {
      "inputs": [
        {
          "internalType": "bytes32",
          "name": "role",
          "type": "bytes32"
        },
        {
          "internalType": "address",
          "name": "account",
          "type": "address"
        }
      ],
      "name": "renounceRole",
      "outputs": [],
      "stateMutability": "nonpayable",
      "type": "function"
    },
    {
      "inputs": [
        {
          "internalType": "bytes32",
          "name": "role",
          "type": "bytes32"
        },
        {
          "internalType": "address",
          "name": "account",
          "type": "address"
        }
      ],
      "name": "revokeRole",
      "outputs": [],
      "stateMutability": "nonpayable",
      "type": "function"
    },
    {
      "inputs": [
        {
          "internalType": "address",
          "name": "from",
          "type": "address"
        },
        {
          "internalType": "address",
          "name": "to",
          "type": "address"
        },
        {
          "internalType": "uint256[]",
          "name": "ids",
          "type": "uint256[]"
        },
        {
          "internalType": "uint256[]",
          "name": "amounts",
          "type": "uint256[]"
        },
        {
          "internalType": "bytes",
          "name": "data",
          "type": "bytes"
        }
      ],
      "name": "safeBatchTransferFrom",
      "outputs": [],
      "stateMutability": "nonpayable",
      "type": "function"
    },
    {
      "inputs": [
        {
          "internalType": "address",
          "name": "from",
          "type": "address"
        },
        {
          "internalType": "address",
          "name": "to",
          "type": "address"
        },
        {
          "internalType": "uint256",
          "name": "id",
          "type": "uint256"
        },
        {
          "internalType": "uint256",
          "name": "amount",
          "type": "uint256"
        },
        {
          "internalType": "bytes",
          "name": "data",
          "type": "bytes"
        }
      ],
      "name": "safeTransferFrom",
      "outputs": [],
      "stateMutability": "nonpayable",
      "type": "function"
    },
    {
      "inputs": [
        {
          "internalType": "uint256",
          "name": "id",
          "type": "uint256"
        }
      ],
      "name": "totalSupply",
      "outputs": [
        {
          "internalType": "uint256",
          "name": "",
          "type": "uint256"
        }
      ],
      "stateMutability": "view",
      "type": "function"
    },
    {
      "inputs": [
        {
          "internalType": "uint256",
          "name": "",
          "type": "uint256"
        }
      ],
      "name": "uri",
      "outputs": [
        {
          "internalType": "string",
          "name": "",
          "type": "string"
        }
      ],
      "stateMutability": "view",
      "type": "function"
    },
    {
      "inputs": [
        {
          "internalType": "address",
          "name": "",
          "type": "address"
        },
        {
          "internalType": "uint256",
          "name": "",
          "type": "uint256"
        }
      ],
      "name": "userToBookKeySecret",
      "outputs": [
        {
          "internalType": "string",
          "name": "",
          "type": "string"
        }
      ],
      "stateMutability": "view",
      "type": "function"
    },
    {
      "inputs": [
        {
          "internalType": "address payable",
          "name": "gnosisSafeAddr",
          "type": "address"
        }
      ],
      "name": "initialize",
      "outputs": [],
      "stateMutability": "nonpayable",
      "type": "function"
    },
    {
      "inputs": [
        {
          "internalType": "string",
          "name": "newuri",
          "type": "string"
        }
      ],
      "name": "setURI",
      "outputs": [],
      "stateMutability": "nonpayable",
      "type": "function"
    },
    {
      "inputs": [
        {
          "internalType": "string",
          "name": "publisher",
          "type": "string"
        },
        {
          "internalType": "address",
          "name": "account",
          "type": "address"
        }
      ],
      "name": "grantPublisher",
      "outputs": [],
      "stateMutability": "nonpayable",
      "type": "function"
    },
    {
      "inputs": [
        {
          "internalType": "uint256",
          "name": "id",
          "type": "uint256"
        },
        {
          "internalType": "string",
          "name": "publisher",
          "type": "string"
        }
      ],
      "name": "setIdToPublisher",
      "outputs": [],
      "stateMutability": "nonpayable",
      "type": "function"
    },
    {
      "inputs": [
        {
          "internalType": "string",
          "name": "publisher",
          "type": "string"
        },
        {
          "internalType": "address",
          "name": "account",
          "type": "address"
        }
      ],
      "name": "revokePublisher",
      "outputs": [],
      "stateMutability": "nonpayable",
      "type": "function"
    },
    {
      "inputs": [],
      "name": "pause",
      "outputs": [],
      "stateMutability": "nonpayable",
      "type": "function"
    },
    {
      "inputs": [],
      "name": "unpause",
      "outputs": [],
      "stateMutability": "nonpayable",
      "type": "function"
    },
    {
      "inputs": [
        {
          "internalType": "address",
          "name": "to",
          "type": "address"
        },
        {
          "internalType": "uint256",
          "name": "id",
          "type": "uint256"
        },
        {
          "internalType": "uint256",
          "name": "amount",
          "type": "uint256"
        },
        {
          "internalType": "bytes",
          "name": "data",
          "type": "bytes"
        },
        {
          "internalType": "uint256",
          "name": "revenueRate",
          "type": "uint256"
        }
      ],
      "name": "mint",
      "outputs": [],
      "stateMutability": "nonpayable",
      "type": "function"
    },
    {
      "inputs": [
        {
          "internalType": "address",
          "name": "to",
          "type": "address"
        },
        {
          "internalType": "uint256[]",
          "name": "ids",
          "type": "uint256[]"
        },
        {
          "internalType": "uint256[]",
          "name": "amounts",
          "type": "uint256[]"
        },
        {
          "internalType": "bytes",
          "name": "data",
          "type": "bytes"
        },
        {
          "internalType": "uint256[]",
          "name": "revenueFeeRates",
          "type": "uint256[]"
        }
      ],
      "name": "mintBatch",
      "outputs": [],
      "stateMutability": "nonpayable",
      "type": "function"
    },
    {
      "inputs": [
        {
          "internalType": "address",
          "name": "from",
          "type": "address"
        },
        {
          "internalType": "uint256",
          "name": "id",
          "type": "uint256"
        },
        {
          "internalType": "uint256",
          "name": "amount",
          "type": "uint256"
        }
      ],
      "name": "burn",
      "outputs": [],
      "stateMutability": "nonpayable",
      "type": "function"
    },
    {
      "inputs": [
        {
          "internalType": "address",
          "name": "from",
          "type": "address"
        },
        {
          "internalType": "uint256[]",
          "name": "ids",
          "type": "uint256[]"
        },
        {
          "internalType": "uint256[]",
          "name": "amounts",
          "type": "uint256[]"
        }
      ],
      "name": "burnBatch",
      "outputs": [],
      "stateMutability": "nonpayable",
      "type": "function"
    },
    {
      "inputs": [
        {
          "internalType": "address",
          "name": "from",
          "type": "address"
        },
        {
          "internalType": "address",
          "name": "to",
          "type": "address"
        },
        {
          "internalType": "uint256",
          "name": "id",
          "type": "uint256"
        },
        {
          "internalType": "uint256",
          "name": "amount",
          "type": "uint256"
        },
        {
          "internalType": "bytes",
          "name": "data",
          "type": "bytes"
        }
      ],
      "name": "transfer",
      "outputs": [],
      "stateMutability": "nonpayable",
      "type": "function"
    },
    {
      "inputs": [
        {
          "internalType": "address",
          "name": "from",
          "type": "address"
        },
        {
          "internalType": "address",
          "name": "to",
          "type": "address"
        },
        {
          "internalType": "uint256[]",
          "name": "ids",
          "type": "uint256[]"
        },
        {
          "internalType": "uint256[]",
          "name": "amounts",
          "type": "uint256[]"
        },
        {
          "internalType": "bytes",
          "name": "data",
          "type": "bytes"
        }
      ],
      "name": "transferBatch",
      "outputs": [],
      "stateMutability": "nonpayable",
      "type": "function"
    },
    {
      "inputs": [
        {
          "internalType": "address",
          "name": "account",
          "type": "address"
        },
        {
          "internalType": "uint256",
          "name": "id",
          "type": "uint256"
        }
      ],
      "name": "balanceOf",
      "outputs": [
        {
          "internalType": "uint256",
          "name": "",
          "type": "uint256"
        }
      ],
      "stateMutability": "view",
      "type": "function"
    },
    {
      "inputs": [
        {
          "internalType": "address[]",
          "name": "accounts",
          "type": "address[]"
        },
        {
          "internalType": "uint256[]",
          "name": "ids",
          "type": "uint256[]"
        }
      ],
      "name": "balanceOfBatch",
      "outputs": [
        {
          "internalType": "uint256[]",
          "name": "",
          "type": "uint256[]"
        }
      ],
      "stateMutability": "view",
      "type": "function"
    },
    {
      "inputs": [
        {
          "internalType": "address",
          "name": "operator",
          "type": "address"
        },
        {
          "internalType": "bool",
          "name": "approved",
          "type": "bool"
        }
      ],
      "name": "setApprovalForAll",
      "outputs": [],
      "stateMutability": "nonpayable",
      "type": "function"
    },
    {
      "inputs": [
        {
          "internalType": "address",
          "name": "account",
          "type": "address"
        },
        {
          "internalType": "address",
          "name": "operator",
          "type": "address"
        }
      ],
      "name": "isApprovedForAll",
      "outputs": [
        {
          "internalType": "bool",
          "name": "",
          "type": "bool"
        }
      ],
      "stateMutability": "view",
      "type": "function"
    },
    {
      "inputs": [
        {
          "internalType": "uint256",
          "name": "id",
          "type": "uint256"
        }
      ],
      "name": "getIdSupply",
      "outputs": [
        {
          "internalType": "uint256",
          "name": "",
          "type": "uint256"
        }
      ],
      "stateMutability": "view",
      "type": "function"
    },
    {
      "inputs": [
        {
          "internalType": "uint256",
          "name": "id",
          "type": "uint256"
        },
        {
          "internalType": "string",
          "name": "newMetadataUrl",
          "type": "string"
        }
      ],
      "name": "changeMetadataUrl",
      "outputs": [],
      "stateMutability": "nonpayable",
      "type": "function"
    },
    {
      "inputs": [
        {
          "internalType": "address",
          "name": "user",
          "type": "address"
        },
        {
          "internalType": "uint256",
          "name": "id",
          "type": "uint256"
        },
        {
          "internalType": "string",
          "name": "key",
          "type": "string"
        }
      ],
      "name": "changeBookKeySecret",
      "outputs": [],
      "stateMutability": "nonpayable",
      "type": "function"
    },
    {
      "inputs": [
        {
          "internalType": "uint16",
          "name": "newMarketFee",
          "type": "uint16"
        }
      ],
      "name": "changeMarketFee",
      "outputs": [],
      "stateMutability": "nonpayable",
      "type": "function"
    },
    {
      "inputs": [
        {
          "internalType": "address payable",
          "name": "newAddr",
          "type": "address"
        }
      ],
      "name": "changeGnosisSafeAddress",
      "outputs": [],
      "stateMutability": "nonpayable",
      "type": "function"
    },
    {
      "inputs": [
        {
          "internalType": "uint256",
          "name": "id",
          "type": "uint256"
        },
        {
          "internalType": "address",
          "name": "seller",
          "type": "address"
        },
        {
          "internalType": "address",
          "name": "buyer",
          "type": "address"
        }
      ],
      "name": "checkIsBuyer",
      "outputs": [
        {
          "internalType": "int256",
          "name": "",
          "type": "int256"
        }
      ],
      "stateMutability": "view",
      "type": "function"
    },
    {
      "inputs": [
        {
          "internalType": "address",
          "name": "account",
          "type": "address"
        },
        {
          "internalType": "uint256",
          "name": "id",
          "type": "uint256"
        }
      ],
      "name": "listedBalanceOf",
      "outputs": [
        {
          "internalType": "uint256",
          "name": "",
          "type": "uint256"
        }
      ],
      "stateMutability": "view",
      "type": "function"
    },
    {
      "inputs": [
        {
          "internalType": "uint256",
          "name": "id",
          "type": "uint256"
        },
        {
          "internalType": "address",
          "name": "seller",
          "type": "address"
        }
      ],
      "name": "getPrice",
      "outputs": [
        {
          "internalType": "uint256",
          "name": "",
          "type": "uint256"
        }
      ],
      "stateMutability": "view",
      "type": "function"
    },
    {
      "inputs": [
        {
          "internalType": "uint256",
          "name": "id",
          "type": "uint256"
        },
        {
          "internalType": "address",
          "name": "seller",
          "type": "address"
        },
        {
          "internalType": "uint256",
          "name": "price",
          "type": "uint256"
        },
        {
          "internalType": "uint256",
          "name": "amount",
          "type": "uint256"
        }
      ],
      "name": "listEBook",
      "outputs": [],
      "stateMutability": "nonpayable",
      "type": "function"
    },
    {
      "inputs": [
        {
          "internalType": "uint256",
          "name": "id",
          "type": "uint256"
        },
        {
          "internalType": "address",
          "name": "seller",
          "type": "address"
        },
        {
          "internalType": "uint256",
          "name": "price",
          "type": "uint256"
        }
      ],
      "name": "modifyPrice",
      "outputs": [],
      "stateMutability": "nonpayable",
      "type": "function"
    },
    {
      "inputs": [
        {
          "internalType": "uint256",
          "name": "id",
          "type": "uint256"
        },
        {
          "internalType": "address",
          "name": "seller",
          "type": "address"
        },
        {
          "internalType": "uint256",
          "name": "amount",
          "type": "uint256"
        }
      ],
      "name": "cancelListing",
      "outputs": [],
      "stateMutability": "nonpayable",
      "type": "function"
    },
    {
      "inputs": [
        {
          "internalType": "address",
          "name": "seller",
          "type": "address"
        },
        {
          "internalType": "address",
          "name": "buyer",
          "type": "address"
        },
        {
          "internalType": "uint256",
          "name": "id",
          "type": "uint256"
        }
      ],
      "name": "determineBuyer",
      "outputs": [],
      "stateMutability": "nonpayable",
      "type": "function"
    },
    {
      "inputs": [
        {
          "internalType": "uint256",
          "name": "id",
          "type": "uint256"
        },
        {
          "internalType": "address payable",
          "name": "seller",
          "type": "address"
        }
      ],
      "name": "purchaseEBook",
      "outputs": [],
      "stateMutability": "payable",
      "type": "function"
    },
    {
      "inputs": [
        {
          "internalType": "bytes4",
          "name": "interfaceId",
          "type": "bytes4"
        }
      ],
      "name": "supportsInterface",
      "outputs": [
        {
          "internalType": "bool",
          "name": "",
          "type": "bool"
        }
      ],
      "stateMutability": "view",
      "type": "function"
    }
  ],
  "bytecode": "0x6080604052610163805461ffff60a01b1916601960a01b1790553480156200002657600080fd5b506200003162000037565b620000f8565b600054610100900460ff1615620000a45760405162461bcd60e51b815260206004820152602760248201527f496e697469616c697a61626c653a20636f6e747261637420697320696e697469604482015266616c697a696e6760c81b606482015260840160405180910390fd5b60005460ff90811614620000f6576000805460ff191660ff9081179091556040519081527f7f26b83ff96e1f2b6a682f133852f6798a09c465da95921460cefb38474024989060200160405180910390a15b565b614ba380620001086000396000f3fe6080604052600436106102c85760003560e01c80635f6f82ea11610175578063bd85b039116100dc578063dc84996e11610095578063e3579fc51161006f578063e3579fc514610987578063e985e9c5146109a7578063f242432a146109c7578063f5298aca146109e757600080fd5b8063dc84996e14610914578063e00dd16114610950578063e1176dc31461096757600080fd5b8063bd85b03914610853578063be28585314610881578063c0ab83e914610894578063c4d66de8146108b4578063d547741f146108d4578063d617fae4146108f457600080fd5b8063911708bc1161012e578063911708bc1461075b57806391d148541461077b578063927fbfc81461079b578063a217fddf146107fe578063a22cb46514610813578063a9171a721461083357600080fd5b80635f6f82ea1461069857806368aae9ab146106b85780636b20c454146106e65780636fcfcb66146107065780638456cb59146107265780638ad094b51461073b57600080fd5b80632a6d9e92116102345780634e1273f4116101ed578063554fa278116101c7578063554fa278146106205780635a9807be146106405780635c975abb146106605780635ebb63651461067857600080fd5b80634e1273f4146105a35780634f558e79146105d057806352509e971461060057600080fd5b80632a6d9e92146104ca5780632b57cfbb146104ea5780632eb2c2d61461052e5780632f2ff15d1461054e57806336568abe1461056e5780633f4ba83a1461058e57600080fd5b80630ef5e267116102865780630ef5e267146103bf578063127217d6146103df5780631286c46d146103ff5780631b5eb57e1461041f578063248a9ca31461047a57806326769cc6146104aa57600080fd5b8062fdd58e146102cd57806301ad63bd1461030057806301ffc9a71461032257806302fe5305146103525780630c834143146103725780630e89341c14610392575b600080fd5b3480156102d957600080fd5b506102ed6102e83660046139b4565b610a07565b6040519081526020015b60405180910390f35b34801561030c57600080fd5b5061032061031b366004613a95565b610a1c565b005b34801561032e57600080fd5b5061034261033d366004613af1565b610b10565b60405190151581526020016102f7565b34801561035e57600080fd5b5061032061036d366004613b0e565b610b1b565b34801561037e57600080fd5b5061032061038d366004613b4a565b610b3b565b34801561039e57600080fd5b506103b26103ad366004613b82565b610d89565b6040516102f79190613beb565b3480156103cb57600080fd5b506103206103da366004613bfe565b610e1d565b3480156103eb57600080fd5b506103206103fa366004613c2e565b611004565b34801561040b57600080fd5b5061032061041a366004613ca3565b611085565b34801561042b57600080fd5b5061045d61043a366004613b82565b61016260205260009081526040902080546001909101546001600160a01b031682565b604080519283526001600160a01b039091166020830152016102f7565b34801561048657600080fd5b506102ed610495366004613b82565b60009081526097602052604090206001015490565b3480156104b657600080fd5b506103206104c5366004613d3c565b6110c7565b3480156104d657600080fd5b506103206104e5366004613d97565b611109565b3480156104f657600080fd5b506102ed610505366004613e01565b6000918252610161602090815260408084206001600160a01b0393909316845291905290205490565b34801561053a57600080fd5b50610320610549366004613eba565b6111b9565b34801561055a57600080fd5b50610320610569366004613e01565b6111fe565b34801561057a57600080fd5b50610320610589366004613e01565b611223565b34801561059a57600080fd5b5061032061129d565b3480156105af57600080fd5b506105c36105be366004613f5a565b6112b3565b6040516102f79190614057565b3480156105dc57600080fd5b506103426105eb366004613b82565b600090815261012d6020526040902054151590565b34801561060c57600080fd5b5061032061061b366004613ca3565b6112bf565b34801561062c57600080fd5b5061032061063b36600461406a565b611361565b34801561064c57600080fd5b506102ed61065b366004613b82565b611386565b34801561066c57600080fd5b5060c95460ff16610342565b34801561068457600080fd5b506102ed6106933660046139b4565b61139b565b3480156106a457600080fd5b506103206106b33660046140b5565b6113c6565b3480156106c457600080fd5b506102ed6106d3366004613b82565b61015f6020526000908152604090205481565b3480156106f257600080fd5b50610320610701366004614167565b611567565b34801561071257600080fd5b50610320610721366004613eba565b61160c565b34801561073257600080fd5b506103206116d4565b34801561074757600080fd5b50610320610756366004613b4a565b6116e7565b34801561076757600080fd5b506103206107763660046141dc565b6118c9565b34801561078757600080fd5b50610342610796366004613e01565b6118f8565b3480156107a757600080fd5b506107e36107b6366004613e01565b61016160209081526000928352604080842090915290825290208054600182015460029092015490919083565b604080519384526020840192909252908201526060016102f7565b34801561080a57600080fd5b506102ed600081565b34801561081f57600080fd5b5061032061082e3660046141f9565b611923565b34801561083f57600080fd5b5061032061084e36600461422c565b611935565b34801561085f57600080fd5b506102ed61086e366004613b82565b600090815261012d602052604090205490565b61032061088f366004613e01565b611b67565b3480156108a057600080fd5b506103b26108af366004613b82565b612070565b3480156108c057600080fd5b506103206108cf3660046141dc565b61210b565b3480156108e057600080fd5b506103206108ef366004613e01565b612273565b34801561090057600080fd5b5061032061090f366004614269565b612298565b34801561092057600080fd5b5061034261092f366004613b0e565b80516020818301810180516101608252928201919093012091525460ff1681565b34801561095c57600080fd5b506102ed6101645481565b34801561097357600080fd5b506103b26109823660046139b4565b6122c7565b34801561099357600080fd5b506102ed6109a236600461428d565b6122ec565b3480156109b357600080fd5b506103426109c23660046142cf565b6123d1565b3480156109d357600080fd5b506103206109e2366004613c2e565b6123dd565b3480156109f357600080fd5b50610320610a023660046142fd565b612422565b6000610a13838361245f565b90505b92915050565b610a246124f2565b600082815261015f6020526040902054610a3d8161253a565b61016454831115610aac5760405162461bcd60e51b815260206004820152602e60248201527f455243313135353a20526571756573746564206964206772656174657220746860448201526d30b71031bab93932b73a1034b21760911b60648201526084015b60405180910390fd5b600082604051602001610abf9190613beb565b604051602081830303815290604052805190602001209050610164548403610af8576101648054906000610af283614348565b91905055505b600093845261015f6020526040909320929092555050565b6000610a1682612544565b610b236124f2565b6000610b2e8161253a565b610b3782612569565b5050565b610b436124f2565b600083815261012d60205260409020548390610b715760405162461bcd60e51b8152600401610aa390614361565b8160008111610b925760405162461bcd60e51b8152600401610aa390614385565b836001600160a01b038116610bb95760405162461bcd60e51b8152600401610aa3906143b3565b84610bc43382612575565b80610bd757506001600160a01b03811633145b610bf35760405162461bcd60e51b8152600401610aa3906143dc565b6000878152610161602090815260408083206001600160a01b038a16845290915290206001015487908790610c3a5760405162461bcd60e51b8152600401610aa39061440a565b6000898152610161602090815260408083206001600160a01b038c168452909152902060028101546001909101548891610c739161443f565b1015610cc15760405162461bcd60e51b815260206004820152601960248201527f457863656564656420616d6f756e7420746f20756e6c697374000000000000006044820152606401610aa3565b6000898152610161602090815260408083206001600160a01b038c16845290915281206001018054899003908190559003610d3b576000898152610161602090815260408083206001600160a01b038c1684529091528120818155600181018290556002810182905590610d38600383018261396d565b50505b60405133815287906001600160a01b038a16908b907f69e5af4ae7d64e2ae64974f8f3d1149f91bd39f3b1dc649f7add227a19093a07906020015b60405180910390a4505050505050505050565b606060678054610d9890614452565b80601f0160208091040260200160405190810160405280929190818152602001828054610dc490614452565b8015610e115780601f10610de657610100808354040283529160200191610e11565b820191906000526020600020905b815481529060010190602001808311610df457829003601f168201915b50505050509050919050565b610e256124f2565b6000610e308161253a565b600082815261012d60205260409020548290610e5e5760405162461bcd60e51b8152600401610aa390614361565b846001600160a01b038116610e855760405162461bcd60e51b8152600401610aa3906143b3565b846001600160a01b038116610eac5760405162461bcd60e51b8152600401610aa3906143b3565b6000858152610161602090815260408083206001600160a01b038b1684529091529020600281015460019091015411610f1d5760405162461bcd60e51b815260206004820152601360248201527213dc99195c88185b1b08199d5b199a5b1b1959606a1b6044820152606401610aa3565b6000858152610161602090815260408083206001600160a01b038b811680865291845291842060038101805460018101825590865293852090930180546001600160a01b031916928b16929092179091558252600201549003610f8357610f83876125a3565b6000858152610161602090815260408083206001600160a01b038b1684529091528120600201805491610fb583614348565b9190505550856001600160a01b0316876001600160a01b0316867f293e36bbce608551a8ef03dba20114986371a7df520fde646a2a4a8136c8fc0e60405160405180910390a450505050505050565b8161100f868561139b565b6110198786610a07565b611023919061443f565b10156110715760405162461bcd60e51b815260206004820181905260248201527f496e73756666696369656e742062616c616e636520746f207472616e736665726044820152606401610aa3565b61107e85858585856123dd565b5050505050565b61108d6124f2565b6000826040516020016110a09190613beb565b6040516020818303038152906040528051906020012090506110c28183612273565b505050565b60006110d28161253a565b6001600160a01b03851660009081526101666020908152604080832087845290915290206111018385836144d2565b505050505050565b6111116124f2565b600084815261015f602052604090205461112a8161253a565b6101645485106111885760405162461bcd60e51b8152602060048201526024808201527f455243313135353a2052657175657374656420696420646f65736e277420657860448201526334b9ba1760e11b6064820152608401610aa3565b60008581526101626020526040902082815560010180546001600160a01b03191633179055611101868686866125af565b6001600160a01b0385163314806111d557506111d585336123d1565b6111f15760405162461bcd60e51b8152600401610aa390614591565b61107e858585858561269a565b6000828152609760205260409020600101546112198161253a565b6110c2838361283f565b6001600160a01b03811633146112935760405162461bcd60e51b815260206004820152602f60248201527f416363657373436f6e74726f6c3a2063616e206f6e6c792072656e6f756e636560448201526e103937b632b9903337b91039b2b63360891b6064820152608401610aa3565b610b3782826128c5565b60006112a88161253a565b6112b061292c565b50565b6060610a13838361297e565b6112c76124f2565b6000826040516020016112da9190613beb565b6040516020818303038152906040528051906020012090506112fc81836111fe565b6101608360405161130d91906145df565b9081526040519081900360200190205460ff166110c25760016101608460405161133791906145df565b908152604051908190036020019020805491151560ff199092169190911790556110c28180612a9a565b600061136c8161253a565b60008481526101656020526040902061107e8385836144d2565b600081815261012d6020526040812054610a16565b6000908152610161602090815260408083206001600160a01b03949094168352929052206001015490565b6113ce6124f2565b8360005b81518110156114215761141161015f60008484815181106113f5576113f56145fb565b602002602001015181526020019081526020016000205461253a565b61141a81614348565b90506113d2565b5084518251148015611434575083518251145b61149a5760405162461bcd60e51b815260206004820152603160248201527f455243313135353a20726576656e75657320616e64206964732f616d6f756e746044820152700e640d8cadccee8d040dad2e6dac2e8c6d607b1b6064820152608401610aa3565b60005b855181101561155a578281815181106114b8576114b86145fb565b602002602001015161016260008884815181106114d7576114d76145fb565b602002602001015181526020019081526020016000206000018190555033610162600088848151811061150c5761150c6145fb565b6020026020010151815260200190815260200160002060010160006101000a8154816001600160a01b0302191690836001600160a01b031602179055508061155390614348565b905061149d565b5061110186868686612ae5565b61156f6124f2565b60005b82518110156116005781818151811061158d5761158d6145fb565b60200260200101516115b8858584815181106115ab576115ab6145fb565b602002602001015161139b565b6115db868685815181106115ce576115ce6145fb565b6020026020010151610a07565b6115e5919061443f565b10156115f057600080fd5b6115f981614348565b9050611572565b506110c2838383612c40565b60005b83518110156116c65782818151811061162a5761162a6145fb565b6020026020010151611648878684815181106115ab576115ab6145fb565b61165e888785815181106115ce576115ce6145fb565b611668919061443f565b10156116b65760405162461bcd60e51b815260206004820181905260248201527f496e73756666696369656e742062616c616e636520746f207472616e736665726044820152606401610aa3565b6116bf81614348565b905061160f565b5061107e85858585856111b9565b60006116df8161253a565b6112b0612c83565b6116ef6124f2565b600083815261012d6020526040902054839061171d5760405162461bcd60e51b8152600401610aa390614361565b816000811161173e5760405162461bcd60e51b8152600401610aa390614385565b836001600160a01b0381166117655760405162461bcd60e51b8152600401610aa3906143b3565b846117703382612575565b8061178357506001600160a01b03811633145b61179f5760405162461bcd60e51b8152600401610aa3906143dc565b6000878152610161602090815260408083206001600160a01b038a168452909152902060010154879087906117e65760405162461bcd60e51b8152600401610aa39061440a565b6000898152610161602090815260408083206001600160a01b038c168452909152902060020154156118515760405162461bcd60e51b8152602060048201526014602482015273109d5e595c881a185cc819195d195c9b5a5b995960621b6044820152606401610aa3565b6000898152610161602090815260408083206001600160a01b038c16808552908352928190208054908b9055815193845233928401929092529091899183918d917f38c88505b4f8c3d77359548f5b449ecf78fa2046034b1b73e88734d23190f556910160405180910390a450505050505050505050565b60006118d48161253a565b5061016380546001600160a01b0319166001600160a01b0392909216919091179055565b60009182526097602090815260408084206001600160a01b0393909316845291905290205460ff1690565b61192b6124f2565b610b378282612cc0565b61193d6124f2565b600084815261012d6020526040902054849061196b5760405162461bcd60e51b8152600401610aa390614361565b826000811161198c5760405162461bcd60e51b8152600401610aa390614385565b82600081116119ad5760405162461bcd60e51b8152600401610aa390614385565b856001600160a01b0381166119d45760405162461bcd60e51b8152600401610aa3906143b3565b866119df3382612575565b806119f257506001600160a01b03811633145b611a0e5760405162461bcd60e51b8152600401610aa3906143dc565b6000898152610161602090815260408083206001600160a01b038c1684529091529020600101548690611a418a8c610a07565b611a4b919061443f565b1015611a995760405162461bcd60e51b815260206004820152601c60248201527f496e73656666696369656e742062616c616e636520746f206c697374000000006044820152606401610aa3565b6000898152610161602090815260408083206001600160a01b038c1684529091528120600201549003611aed576000898152610161602090815260408083206001600160a01b038c16845290915290208790555b6000898152610161602090815260408083206001600160a01b038c16845290915281206001018054889290611b23908490614611565b90915550506040516001600160a01b0389168152879087908b907f2fc0ffd013b5d05f874bd9a06a8bb6dbfe037efcb406e32eca22ed05e1ed381d90602001610d76565b611b6f6124f2565b600082815261012d60205260409020548290611b9d5760405162461bcd60e51b8152600401610aa390614361565b816001600160a01b038116611bc45760405162461bcd60e51b8152600401610aa3906143b3565b6000848152610161602090815260408083206001600160a01b038716845290915290206001015484908490611c0b5760405162461bcd60e51b8152600401610aa39061440a565b336000611c198888846122ec565b90508019611c555760405162461bcd60e51b81526020600482015260096024820152683737ba10313abcb2b960b91b6044820152606401610aa3565b6000888152610161602090815260408083206001600160a01b038b1684528252808320548b84526101629092528220549091906103e890611c969084614624565b611ca0919061463b565b610163549091506000906103e890611cc390600160a01b900461ffff1685614624565b611ccd919061463b565b9050600081611cdc8486614611565b611ce69190614611565b905080341015611d2d5760405162461bcd60e51b815260206004820152601260248201527124b739bab33334b1b4b2b73a1022ba3432b960711b6044820152606401610aa3565b60008c8152610161602090815260408083206001600160a01b038f1684529091528120600101805491611d5f8361465d565b909155505060008c8152610161602090815260408083206001600160a01b038f1684529091528120600201805491611d968361465d565b909155505060008c8152610161602090815260408083206001600160a01b038f1684529091528120600301805487908110611dd357611dd36145fb565b9060005260206000200160006101000a8154816001600160a01b0302191690836001600160a01b03160217905550611e1e8b878e600160405180602001604052806000815250612ccb565b6040516001600160a01b038c169085156108fc029086906000818181858888f19350505050158015611e54573d6000803e3d6000fd5b50610163546040516001600160a01b039091169083156108fc029084906000818181858888f19350505050158015611e90573d6000803e3d6000fd5b5060008c815261016260205260408082206001015490516001600160a01b0390911691829186156108fc0291879190818181858888f19350505050158015611edc573d6000803e3d6000fd5b506000611ee9833461443f565b1115611f30576001600160a01b0387166108fc611f06843461443f565b6040518115909202916000818181858888f19350505050158015611f2e573d6000803e3d6000fd5b505b61016160008e815260200190815260200160002060008d6001600160a01b03166001600160a01b0316815260200190815260200160002060020154600003611f7b57611f7b8c612e07565b61016160008e815260200190815260200160002060008d6001600160a01b03166001600160a01b03168152602001908152602001600020600101546000036120205761016160008e815260200190815260200160002060008d6001600160a01b03166001600160a01b031681526020019081526020016000206000808201600090556001820160009055600282016000905560038201600061201d919061396d565b50505b866001600160a01b03168c6001600160a01b03168e7f920fa75bdd35e02ccdb168c8b4214196d63ffe7eee90c4b073112050f5ba2e3c60405160405180910390a450505050505050505050505050565b610165602052600090815260409020805461208a90614452565b80601f01602080910402602001604051908101604052809291908181526020018280546120b690614452565b80156121035780601f106120d857610100808354040283529160200191612103565b820191906000526020600020905b8154815290600101906020018083116120e657829003601f168201915b505050505081565b600054610100900460ff161580801561212b5750600054600160ff909116105b806121455750303b158015612145575060005460ff166001145b6121a85760405162461bcd60e51b815260206004820152602e60248201527f496e697469616c697a61626c653a20636f6e747261637420697320616c72656160448201526d191e481a5b9a5d1a585b1a5e995960921b6064820152608401610aa3565b6000805460ff1916600117905580156121cb576000805461ff0019166101001790555b6121e360405180602001604052806000815250612e13565b6121eb612e43565b6121f3612e6a565b6121fb612e43565b612203612e43565b61220e60003361283f565b61016380546001600160a01b0319166001600160a01b0384161790558015610b37576000805461ff0019169055604051600181527f7f26b83ff96e1f2b6a682f133852f6798a09c465da95921460cefb38474024989060200160405180910390a15050565b60008281526097602052604090206001015461228e8161253a565b6110c283836128c5565b60006122a38161253a565b50610163805461ffff909216600160a01b0261ffff60a01b19909216919091179055565b6101666020908152600092835260408084209091529082529020805461208a90614452565b6000838152610161602090815260408083206001600160a01b0386168452825280832060030180548251818502810185019093528083529284929190849083018282801561236357602002820191906000526020600020905b81546001600160a01b03168152600190910190602001808311612345575b5050505050905060005b828110156123c157846001600160a01b0316828281518110612391576123916145fb565b60200260200101516001600160a01b0316036123b15792506123ca915050565b6123ba81614348565b905061236d565b50600019925050505b9392505050565b6000610a138383612575565b6001600160a01b0385163314806123f957506123f985336123d1565b6124155760405162461bcd60e51b8152600401610aa390614591565b61107e8585858585612ccb565b61242a6124f2565b80612435848461139b565b61243f8585610a07565b612449919061443f565b101561245457600080fd5b6110c2838383612e99565b60006001600160a01b0383166124ca5760405162461bcd60e51b815260206004820152602a60248201527f455243313135353a2061646472657373207a65726f206973206e6f742061207660448201526930b634b21037bbb732b960b11b6064820152608401610aa3565b5060009081526065602090815260408083206001600160a01b03949094168352929052205490565b60c95460ff16156125385760405162461bcd60e51b815260206004820152601060248201526f14185d5cd8589b194e881c185d5cd95960821b6044820152606401610aa3565b565b6112b08133612edc565b60006001600160e01b03198216637965db0b60e01b1480610a165750610a1682612f35565b6067610b378282614674565b6001600160a01b03918216600090815260666020908152604080832093909416825291909152205460ff1690565b6112b081306001612f85565b6001600160a01b0384166125d55760405162461bcd60e51b8152600401610aa390614733565b3360006125e185613065565b905060006125ee85613065565b90506125ff836000898585896130b0565b60008681526065602090815260408083206001600160a01b038b16845290915281208054879290612631908490614611565b909155505060408051878152602081018790526001600160a01b03808a1692600092918716917fc3d58168c5ae7397731d063d5bbf3d657854427343f4c083240f7aacaa2d0f62910160405180910390a4612691836000898989896130c6565b50505050505050565b81518351146126bb5760405162461bcd60e51b8152600401610aa390614774565b6001600160a01b0384166126e15760405162461bcd60e51b8152600401610aa3906147bc565b336126f08187878787876130b0565b60005b84518110156127d9576000858281518110612710576127106145fb565b60200260200101519050600085838151811061272e5761272e6145fb565b60209081029190910181015160008481526065835260408082206001600160a01b038e16835290935291909120549091508181101561277f5760405162461bcd60e51b8152600401610aa390614801565b60008381526065602090815260408083206001600160a01b038e8116855292528083208585039055908b168252812080548492906127be908490614611565b92505081905550505050806127d290614348565b90506126f3565b50846001600160a01b0316866001600160a01b0316826001600160a01b03167f4a39dc06d4c0dbc64b70af90fd698a233a518aa5d07e595d983b8c0526c8f7fb878760405161282992919061484b565b60405180910390a4611101818787878787613221565b61284982826118f8565b610b375760008281526097602090815260408083206001600160a01b03851684529091529020805460ff191660011790556128813390565b6001600160a01b0316816001600160a01b0316837f2f8788117e7eff1d82e926ec794901d17c78024a50270940304540a733656f0d60405160405180910390a45050565b6128cf82826118f8565b15610b375760008281526097602090815260408083206001600160a01b0385168085529252808320805460ff1916905551339285917ff6391f5c32d9c69d2a47ea670b442974b53935d1edc7fd64eb21e047a839171b9190a45050565b6129346132dc565b60c9805460ff191690557f5db9ee0a495bf2e6ff9c91a7834c1ba4fdd244a5e8aa4e537bd38aeae4b073aa335b6040516001600160a01b03909116815260200160405180910390a1565b606081518351146129e35760405162461bcd60e51b815260206004820152602960248201527f455243313135353a206163636f756e747320616e6420696473206c656e677468604482015268040dad2e6dac2e8c6d60bb1b6064820152608401610aa3565b600083516001600160401b038111156129fe576129fe6139e0565b604051908082528060200260200182016040528015612a27578160200160208202803683370190505b50905060005b8451811015612a9257612a65858281518110612a4b57612a4b6145fb565b60200260200101518583815181106115ce576115ce6145fb565b828281518110612a7757612a776145fb565b6020908102919091010152612a8b81614348565b9050612a2d565b509392505050565b600082815260976020526040808220600101805490849055905190918391839186917fbd79b86ffe0ab8e8776151514217cd7cacd52c909f66475c3af44e129f0b00ff9190a4505050565b6001600160a01b038416612b0b5760405162461bcd60e51b8152600401610aa390614733565b8151835114612b2c5760405162461bcd60e51b8152600401610aa390614774565b33612b3c816000878787876130b0565b60005b8451811015612bd857838181518110612b5a57612b5a6145fb565b602002602001015160656000878481518110612b7857612b786145fb565b602002602001015181526020019081526020016000206000886001600160a01b03166001600160a01b031681526020019081526020016000206000828254612bc09190614611565b90915550819050612bd081614348565b915050612b3f565b50846001600160a01b031660006001600160a01b0316826001600160a01b03167f4a39dc06d4c0dbc64b70af90fd698a233a518aa5d07e595d983b8c0526c8f7fb8787604051612c2992919061484b565b60405180910390a461107e81600087878787613221565b6001600160a01b038316331480612c5c5750612c5c83336123d1565b612c785760405162461bcd60e51b8152600401610aa390614591565b6110c2838383613325565b612c8b6124f2565b60c9805460ff191660011790557f62e78cea01bee320cd4e420270b5ea74000d11b0c9f74754ebdbfc544b05a2586129613390565b610b37338383612f85565b6001600160a01b038416612cf15760405162461bcd60e51b8152600401610aa3906147bc565b336000612cfd85613065565b90506000612d0a85613065565b9050612d1a8389898585896130b0565b60008681526065602090815260408083206001600160a01b038c16845290915290205485811015612d5d5760405162461bcd60e51b8152600401610aa390614801565b60008781526065602090815260408083206001600160a01b038d8116855292528083208985039055908a16825281208054889290612d9c908490614611565b909155505060408051888152602081018890526001600160a01b03808b16928c821692918816917fc3d58168c5ae7397731d063d5bbf3d657854427343f4c083240f7aacaa2d0f62910160405180910390a4612dfc848a8a8a8a8a6130c6565b505050505050505050565b6112b081306000612f85565b600054610100900460ff16612e3a5760405162461bcd60e51b8152600401610aa390614879565b6112b0816134c5565b600054610100900460ff166125385760405162461bcd60e51b8152600401610aa390614879565b600054610100900460ff16612e915760405162461bcd60e51b8152600401610aa390614879565b6125386134f5565b6001600160a01b038316331480612eb55750612eb583336123d1565b612ed15760405162461bcd60e51b8152600401610aa390614591565b6110c2838383613528565b612ee682826118f8565b610b3757612ef381613644565b612efe836020613656565b604051602001612f0f9291906148c4565b60408051601f198184030181529082905262461bcd60e51b8252610aa391600401613beb565b60006001600160e01b03198216636cdb3d1360e11b1480612f6657506001600160e01b031982166303a24d0760e21b145b80610a1657506301ffc9a760e01b6001600160e01b0319831614610a16565b816001600160a01b0316836001600160a01b031603612ff85760405162461bcd60e51b815260206004820152602960248201527f455243313135353a2073657474696e6720617070726f76616c20737461747573604482015268103337b91039b2b63360b91b6064820152608401610aa3565b6001600160a01b03838116600081815260666020908152604080832094871680845294825291829020805460ff191686151590811790915591519182527f17307eab39ab6107e8899845ad3d59bd9653f200f220920489ca2b5937696c31910160405180910390a3505050565b6040805160018082528183019092526060916000919060208083019080368337019050509050828160008151811061309f5761309f6145fb565b602090810291909101015292915050565b6130b86124f2565b6111018686868686866137f1565b6001600160a01b0384163b156111015760405163f23a6e6160e01b81526001600160a01b0385169063f23a6e619061310a9089908990889088908890600401614939565b6020604051808303816000875af1925050508015613145575060408051601f3d908101601f191682019092526131429181019061497e565b60015b6131f15761315161499b565b806308c379a00361318a57506131656149b7565b80613170575061318c565b8060405162461bcd60e51b8152600401610aa39190613beb565b505b60405162461bcd60e51b815260206004820152603460248201527f455243313135353a207472616e7366657220746f206e6f6e2d455243313135356044820152732932b1b2b4bb32b91034b6b83632b6b2b73a32b960611b6064820152608401610aa3565b6001600160e01b0319811663f23a6e6160e01b146126915760405162461bcd60e51b8152600401610aa390614a40565b6001600160a01b0384163b156111015760405163bc197c8160e01b81526001600160a01b0385169063bc197c81906132659089908990889088908890600401614a88565b6020604051808303816000875af19250505080156132a0575060408051601f3d908101601f1916820190925261329d9181019061497e565b60015b6132ac5761315161499b565b6001600160e01b0319811663bc197c8160e01b146126915760405162461bcd60e51b8152600401610aa390614a40565b60c95460ff166125385760405162461bcd60e51b815260206004820152601460248201527314185d5cd8589b194e881b9bdd081c185d5cd95960621b6044820152606401610aa3565b6001600160a01b03831661334b5760405162461bcd60e51b8152600401610aa390614ae6565b805182511461336c5760405162461bcd60e51b8152600401610aa390614774565b600033905061338f818560008686604051806020016040528060008152506130b0565b60005b83518110156134575760008482815181106133af576133af6145fb565b6020026020010151905060008483815181106133cd576133cd6145fb565b60209081029190910181015160008481526065835260408082206001600160a01b038c16835290935291909120549091508181101561341e5760405162461bcd60e51b8152600401610aa390614b29565b60009283526065602090815260408085206001600160a01b038b168652909152909220910390558061344f81614348565b915050613392565b5060006001600160a01b0316846001600160a01b0316826001600160a01b03167f4a39dc06d4c0dbc64b70af90fd698a233a518aa5d07e595d983b8c0526c8f7fb86866040516134a892919061484b565b60405180910390a460408051602081019091526000905250505050565b600054610100900460ff166134ec5760405162461bcd60e51b8152600401610aa390614879565b6112b081612569565b600054610100900460ff1661351c5760405162461bcd60e51b8152600401610aa390614879565b60c9805460ff19169055565b6001600160a01b03831661354e5760405162461bcd60e51b8152600401610aa390614ae6565b33600061355a84613065565b9050600061356784613065565b9050613587838760008585604051806020016040528060008152506130b0565b60008581526065602090815260408083206001600160a01b038a168452909152902054848110156135ca5760405162461bcd60e51b8152600401610aa390614b29565b60008681526065602090815260408083206001600160a01b038b81168086529184528285208a8703905582518b81529384018a90529092908816917fc3d58168c5ae7397731d063d5bbf3d657854427343f4c083240f7aacaa2d0f62910160405180910390a4604080516020810190915260009052612691565b6060610a166001600160a01b03831660145b60606000613665836002614624565b613670906002614611565b6001600160401b03811115613687576136876139e0565b6040519080825280601f01601f1916602001820160405280156136b1576020820181803683370190505b509050600360fc1b816000815181106136cc576136cc6145fb565b60200101906001600160f81b031916908160001a905350600f60fb1b816001815181106136fb576136fb6145fb565b60200101906001600160f81b031916908160001a905350600061371f846002614624565b61372a906001614611565b90505b60018111156137a2576f181899199a1a9b1b9c1cb0b131b232b360811b85600f166010811061375e5761375e6145fb565b1a60f81b828281518110613774576137746145fb565b60200101906001600160f81b031916908160001a90535060049490941c9361379b8161465d565b905061372d565b508315610a135760405162461bcd60e51b815260206004820181905260248201527f537472696e67733a20686578206c656e67746820696e73756666696369656e746044820152606401610aa3565b6001600160a01b0385166138795760005b83518110156138775782818151811061381d5761381d6145fb565b602002602001015161012d600086848151811061383c5761383c6145fb565b6020026020010151815260200190815260200160002060008282546138619190614611565b90915550613870905081614348565b9050613802565b505b6001600160a01b0384166111015760005b83518110156126915760008482815181106138a7576138a76145fb565b6020026020010151905060008483815181106138c5576138c56145fb565b60200260200101519050600061012d6000848152602001908152602001600020549050818110156139495760405162461bcd60e51b815260206004820152602860248201527f455243313135353a206275726e20616d6f756e74206578636565647320746f74604482015267616c537570706c7960c01b6064820152608401610aa3565b600092835261012d60205260409092209103905561396681614348565b905061388a565b50805460008255906000526020600020908101906112b091905b8082111561399b5760008155600101613987565b5090565b6001600160a01b03811681146112b057600080fd5b600080604083850312156139c757600080fd5b82356139d28161399f565b946020939093013593505050565b634e487b7160e01b600052604160045260246000fd5b601f8201601f191681016001600160401b0381118282101715613a1b57613a1b6139e0565b6040525050565b600082601f830112613a3357600080fd5b81356001600160401b03811115613a4c57613a4c6139e0565b604051613a63601f8301601f1916602001826139f6565b818152846020838601011115613a7857600080fd5b816020850160208301376000918101602001919091529392505050565b60008060408385031215613aa857600080fd5b8235915060208301356001600160401b03811115613ac557600080fd5b613ad185828601613a22565b9150509250929050565b6001600160e01b0319811681146112b057600080fd5b600060208284031215613b0357600080fd5b8135610a1381613adb565b600060208284031215613b2057600080fd5b81356001600160401b03811115613b3657600080fd5b613b4284828501613a22565b949350505050565b600080600060608486031215613b5f57600080fd5b833592506020840135613b718161399f565b929592945050506040919091013590565b600060208284031215613b9457600080fd5b5035919050565b60005b83811015613bb6578181015183820152602001613b9e565b50506000910152565b60008151808452613bd7816020860160208601613b9b565b601f01601f19169290920160200192915050565b602081526000610a136020830184613bbf565b600080600060608486031215613c1357600080fd5b8335613c1e8161399f565b92506020840135613b718161399f565b600080600080600060a08688031215613c4657600080fd5b8535613c518161399f565b94506020860135613c618161399f565b9350604086013592506060860135915060808601356001600160401b03811115613c8a57600080fd5b613c9688828901613a22565b9150509295509295909350565b60008060408385031215613cb657600080fd5b82356001600160401b03811115613ccc57600080fd5b613cd885828601613a22565b9250506020830135613ce98161399f565b809150509250929050565b60008083601f840112613d0657600080fd5b5081356001600160401b03811115613d1d57600080fd5b602083019150836020828501011115613d3557600080fd5b9250929050565b60008060008060608587031215613d5257600080fd5b8435613d5d8161399f565b93506020850135925060408501356001600160401b03811115613d7f57600080fd5b613d8b87828801613cf4565b95989497509550505050565b600080600080600060a08688031215613daf57600080fd5b8535613dba8161399f565b9450602086013593506040860135925060608601356001600160401b03811115613de357600080fd5b613def88828901613a22565b95989497509295608001359392505050565b60008060408385031215613e1457600080fd5b823591506020830135613ce98161399f565b60006001600160401b03821115613e3f57613e3f6139e0565b5060051b60200190565b600082601f830112613e5a57600080fd5b81356020613e6782613e26565b604051613e7482826139f6565b83815260059390931b8501820192828101915086841115613e9457600080fd5b8286015b84811015613eaf5780358352918301918301613e98565b509695505050505050565b600080600080600060a08688031215613ed257600080fd5b8535613edd8161399f565b94506020860135613eed8161399f565b935060408601356001600160401b0380821115613f0957600080fd5b613f1589838a01613e49565b94506060880135915080821115613f2b57600080fd5b613f3789838a01613e49565b93506080880135915080821115613f4d57600080fd5b50613c9688828901613a22565b60008060408385031215613f6d57600080fd5b82356001600160401b0380821115613f8457600080fd5b818501915085601f830112613f9857600080fd5b81356020613fa582613e26565b604051613fb282826139f6565b83815260059390931b8501820192828101915089841115613fd257600080fd5b948201945b83861015613ff9578535613fea8161399f565b82529482019490820190613fd7565b9650508601359250508082111561400f57600080fd5b50613ad185828601613e49565b600081518084526020808501945080840160005b8381101561404c57815187529582019590820190600101614030565b509495945050505050565b602081526000610a13602083018461401c565b60008060006040848603121561407f57600080fd5b8335925060208401356001600160401b0381111561409c57600080fd5b6140a886828701613cf4565b9497909650939450505050565b600080600080600060a086880312156140cd57600080fd5b85356140d88161399f565b945060208601356001600160401b03808211156140f457600080fd5b61410089838a01613e49565b9550604088013591508082111561411657600080fd5b61412289838a01613e49565b9450606088013591508082111561413857600080fd5b61414489838a01613a22565b9350608088013591508082111561415a57600080fd5b50613c9688828901613e49565b60008060006060848603121561417c57600080fd5b83356141878161399f565b925060208401356001600160401b03808211156141a357600080fd5b6141af87838801613e49565b935060408601359150808211156141c557600080fd5b506141d286828701613e49565b9150509250925092565b6000602082840312156141ee57600080fd5b8135610a138161399f565b6000806040838503121561420c57600080fd5b82356142178161399f565b915060208301358015158114613ce957600080fd5b6000806000806080858703121561424257600080fd5b8435935060208501356142548161399f565b93969395505050506040820135916060013590565b60006020828403121561427b57600080fd5b813561ffff81168114610a1357600080fd5b6000806000606084860312156142a257600080fd5b8335925060208401356142b48161399f565b915060408401356142c48161399f565b809150509250925092565b600080604083850312156142e257600080fd5b82356142ed8161399f565b91506020830135613ce98161399f565b60008060006060848603121561431257600080fd5b833561431d8161399f565b95602085013595506040909401359392505050565b634e487b7160e01b600052601160045260246000fd5b60006001820161435a5761435a614332565b5060010190565b6020808252600a9082015269125b9d985b1a5908125160b21b604082015260600190565b602080825260149082015273125b9d985b1a59081c1c9a58d94bd85b5bdd5b9d60621b604082015260600190565b6020808252600f908201526e496e76616c6964206164647265737360881b604082015260600190565b602080825260149082015273155b985d5d1a1bdc9a5e9959081858d8dbdd5b9d60621b604082015260600190565b6020808252818101527f452d426f6f6b206973206e6f74206c6973746564206f7220736f6c64206f7574604082015260600190565b81810381811115610a1657610a16614332565b600181811c9082168061446657607f821691505b60208210810361448657634e487b7160e01b600052602260045260246000fd5b50919050565b601f8211156110c257600081815260208120601f850160051c810160208610156144b35750805b601f850160051c820191505b81811015611101578281556001016144bf565b6001600160401b038311156144e9576144e96139e0565b6144fd836144f78354614452565b8361448c565b6000601f84116001811461453157600085156145195750838201355b600019600387901b1c1916600186901b17835561107e565b600083815260209020601f19861690835b828110156145625786850135825560209485019460019092019101614542565b508682101561457f5760001960f88860031b161c19848701351681555b505060018560011b0183555050505050565b6020808252602e908201527f455243313135353a2063616c6c6572206973206e6f7420746f6b656e206f776e60408201526d195c881bdc88185c1c1c9bdd995960921b606082015260800190565b600082516145f1818460208701613b9b565b9190910192915050565b634e487b7160e01b600052603260045260246000fd5b80820180821115610a1657610a16614332565b8082028115828204841417610a1657610a16614332565b60008261465857634e487b7160e01b600052601260045260246000fd5b500490565b60008161466c5761466c614332565b506000190190565b81516001600160401b0381111561468d5761468d6139e0565b6146a18161469b8454614452565b8461448c565b602080601f8311600181146146d657600084156146be5750858301515b600019600386901b1c1916600185901b178555611101565b600085815260208120601f198616915b82811015614705578886015182559484019460019091019084016146e6565b50858210156147235787850151600019600388901b60f8161c191681555b5050505050600190811b01905550565b60208082526021908201527f455243313135353a206d696e7420746f20746865207a65726f206164647265736040820152607360f81b606082015260800190565b60208082526028908201527f455243313135353a2069647320616e6420616d6f756e7473206c656e677468206040820152670dad2e6dac2e8c6d60c31b606082015260800190565b60208082526025908201527f455243313135353a207472616e7366657220746f20746865207a65726f206164604082015264647265737360d81b606082015260800190565b6020808252602a908201527f455243313135353a20696e73756666696369656e742062616c616e636520666f60408201526939103a3930b739b332b960b11b606082015260800190565b60408152600061485e604083018561401c565b8281036020840152614870818561401c565b95945050505050565b6020808252602b908201527f496e697469616c697a61626c653a20636f6e7472616374206973206e6f74206960408201526a6e697469616c697a696e6760a81b606082015260800190565b7f416363657373436f6e74726f6c3a206163636f756e74200000000000000000008152600083516148fc816017850160208801613b9b565b7001034b99036b4b9b9b4b733903937b6329607d1b601791840191820152835161492d816028840160208801613b9b565b01602801949350505050565b6001600160a01b03868116825285166020820152604081018490526060810183905260a06080820181905260009061497390830184613bbf565b979650505050505050565b60006020828403121561499057600080fd5b8151610a1381613adb565b600060033d11156149b45760046000803e5060005160e01c5b90565b600060443d10156149c55790565b6040516003193d81016004833e81513d6001600160401b0381602484011181841117156149f457505050505090565b8285019150815181811115614a0c5750505050505090565b843d8701016020828501011115614a265750505050505090565b614a35602082860101876139f6565b509095945050505050565b60208082526028908201527f455243313135353a204552433131353552656365697665722072656a656374656040820152676420746f6b656e7360c01b606082015260800190565b6001600160a01b0386811682528516602082015260a060408201819052600090614ab49083018661401c565b8281036060840152614ac6818661401c565b90508281036080840152614ada8185613bbf565b98975050505050505050565b60208082526023908201527f455243313135353a206275726e2066726f6d20746865207a65726f206164647260408201526265737360e81b606082015260800190565b60208082526024908201527f455243313135353a206275726e20616d6f756e7420657863656564732062616c604082015263616e636560e01b60608201526080019056fea2646970667358221220027c70d0456eda244d33191694289b9d3ea3544344493f7981bcebb2a67bfacb64736f6c63430008130033",
  "immutableReferences": {},
  "source": "// SPDX-License-Identifier: MIT\r\npragma solidity ^0.8.7;\r\n\r\nimport \"../node_modules/@openzeppelin/contracts-upgradeable/token/ERC1155/ERC1155Upgradeable.sol\";\r\nimport \"../node_modules/@openzeppelin/contracts-upgradeable/access/AccessControlUpgradeable.sol\";\r\nimport \"../node_modules/@openzeppelin/contracts-upgradeable/security/PausableUpgradeable.sol\";\r\nimport \"../node_modules/@openzeppelin/contracts-upgradeable/token/ERC1155/extensions/ERC1155BurnableUpgradeable.sol\";\r\nimport \"../node_modules/@openzeppelin/contracts-upgradeable/token/ERC1155/extensions/ERC1155SupplyUpgradeable.sol\";\r\nimport \"../node_modules/@openzeppelin/contracts-upgradeable/proxy/utils/Initializable.sol\";\r\n\r\n/// @custom:security-contact dodo920306@gmail.com\r\ncontract The_Ohara_Protocol_v2 is Initializable, ERC1155Upgradeable, AccessControlUpgradeable, PausableUpgradeable, ERC1155BurnableUpgradeable, ERC1155SupplyUpgradeable {\r\n    \r\n    mapping (uint256 => bytes32) public idToPublisher; // Anyone can check which publisher an id belongs to.\r\n    mapping (string => bool) public publisherHasMember;\r\n\r\n    struct Listing {\r\n        uint256 price; // \r\n        uint256 listedBalance; // \r\n        uint256 buyerCounts; // \r\n        address[] buyers; // \r\n    }\r\n\r\n    struct RevenueFeeInfo {\r\n        uint256 revenueFeeRate; // \r\n        address publisher; //  mint \r\n    }\r\n    \r\n    mapping (uint256 => mapping (address => Listing)) public listings; // id => seller => Listing\r\n    mapping (uint256 => RevenueFeeInfo) public publisherRevenueFeeRates; // id => revenue percentage\r\n\r\n    address payable gnosisSafeAddress;\r\n    uint16 marketFeeRate = 25;\r\n    uint256 public currentId;\r\n\r\n    mapping (uint256 => string) public idToMetadataUrl;\r\n    mapping (address => mapping (uint256 => string)) public userToBookKeySecret;\r\n\r\n    event EBookListed(uint256 indexed id, uint256 indexed amount, uint256 indexed price, address seller);\r\n    event PriceModified(uint256 indexed id, uint256 indexed originalPrice, uint256 indexed currentPrice, address seller, address priceModifier);\r\n    event ListingCancelled(uint256 indexed id, address indexed seller, uint256 indexed removeAmount, address canceller);\r\n    event BuyerDetermined(uint256 indexed id, address indexed seller, address indexed buyer);\r\n    event TransactionMade(uint256 indexed id, address indexed seller, address indexed buyer);\r\n\r\n    modifier isIdExisted(uint256 id) {\r\n        require(super.exists(id), \"Invalid ID\");\r\n        _;\r\n    }\r\n\r\n    modifier IsPriceOrAmountValid(uint256 priceOrAmount) {\r\n        require(priceOrAmount > 0, \"Invalid price/amount\");\r\n        _;\r\n    }\r\n\r\n    modifier isApproved(address seller) {\r\n        require(super.isApprovedForAll(msg.sender, seller) || seller == msg.sender, \"Unauthorized account\");\r\n        _;\r\n    }\r\n\r\n    modifier isAddressValid(address addr) {\r\n        require(addr != address(0), \"Invalid address\");\r\n        _;\r\n    }\r\n\r\n    // /\r\n    modifier IsEBookAvailableOnOrder(uint256 id, address seller) {\r\n        require(listings[id][seller].listedBalance > 0, \"E-Book is not listed or sold out\");\r\n        _;\r\n    }\r\n\r\n    // There's no onlyPublisherSingle, for that it basically equals to onlyRole modifier from AccessControl. \r\n    modifier onlyPublisherBatch(uint256[] memory ids) {\r\n        for (uint256 i = 0; i < ids.length; ++i) {\r\n            _checkRole(idToPublisher[ids[i]]);\r\n        }\r\n        _;\r\n    }\r\n\r\n    /// @custom:oz-upgrades-unsafe-allow constructor\r\n    constructor() {\r\n        _disableInitializers();\r\n    }\r\n\r\n    function initialize(address payable gnosisSafeAddr) initializer public {\r\n        __ERC1155_init(\"\");\r\n        __AccessControl_init();\r\n        __Pausable_init();\r\n        __ERC1155Burnable_init();\r\n        __ERC1155Supply_init();\r\n\r\n        _grantRole(DEFAULT_ADMIN_ROLE, msg.sender);\r\n        gnosisSafeAddress = gnosisSafeAddr;\r\n    }\r\n\r\n    // Tim: added whenNotPaused\r\n    function setURI(string memory newuri) public whenNotPaused onlyRole(DEFAULT_ADMIN_ROLE) {\r\n        _setURI(newuri);\r\n    }\r\n\r\n    /**\r\n     * @dev The publisher who wants to claim an account belongs to them must use this function\r\n     * with the magic string that represents themselves.\r\n     * \r\n     * The function will uses keccak256 solidity function to hash this string, but before that, it must be represented as bytes32.\r\n     * The type conversion from \"string memory\" to \"bytes32\" isn't allowed, so we use abi.encode() here.\r\n     * See https://ethereum.stackexchange.com/questions/119583/when-to-use-abi-encode-abi-encodepacked-or-abi-encodewithsignature-in-solidity\r\n     * for the reason of this selection.\r\n     * \r\n     * After that, we use grantRole() function from AccessControl,\r\n     * the reason we don't directly use _grantRole() here is because the onlyRole(getRoleAdmin(role)) should also be passed in this operation,\r\n     * and since grantRole() has that modifier originally, the current function doesn't require any modifier yet,\r\n     * and there's no need to be afraid that anyone hash others' magic string and directly call grantRole() because there's no way he/she can be the admin.\r\n     * \r\n     * If it's the first member to be added in the publisher,\r\n     * the msg.sender must be DEFAULT_ADMIN_ROLE to pass onlyRole(getRoleAdmin(role)) for that there's no way to set admin to others.\r\n     * If so, then the function would call _setRoleAdmin() to release the admin power to the publisher itself,\r\n     * indicating that from this point on, only the publisher can manage which accounts can act on its behalf.\r\n     * \r\n     * The only risk would be that a hacker steal one private key from DEFAULT_ADMIN_ROLE,\r\n     * in that case, the worse he/she can do is grant his/her accounts the publisher role that \"hasn't been registered yet\",\r\n     * for that the admins of the publishers already in the protocol can only be themselves.\r\n     * If so, then the publishers register in the future cannot use the same magic string as the hacker granted himself/herself even if they want.\r\n     * (Basically, it's the same idea as \"This username has already been used. Please try another.\",\r\n     * so the power of DEFAULT_ADMIN_ROLE is basically just register publishers and ids.)\r\n     */\r\n    // Tim: added whenNotPaused\r\n    function grantPublisher(string memory publisher, address account) public virtual whenNotPaused {\r\n        bytes32 role = keccak256(abi.encode(publisher));\r\n        grantRole(role, account);\r\n\r\n        if (!publisherHasMember[publisher]) {\r\n            publisherHasMember[publisher] = true;\r\n            _setRoleAdmin(role, role);\r\n        }\r\n    }\r\n\r\n    /**\r\n     * @dev See the comment of grantPublisher() above for more info about the string publisher and the bytes32 role.\r\n     * Only the old publisher could set the publisher of an id to a new one.\r\n     * Since the default publisher of the id is 0x00, the first publisher of the id must be set by the DEFAULT_ADMIN_ROLE.\r\n     */\r\n    // Tim: added whenNotPaused\r\n    function setIdToPublisher(uint256 id, string memory publisher)\r\n        public\r\n        whenNotPaused\r\n        onlyRole(idToPublisher[id])\r\n    {\r\n        require(id <= currentId, \"ERC1155: Requested id greater than current id.\");\r\n        bytes32 role = keccak256(abi.encode(publisher));\r\n        if(id == currentId) currentId++;\r\n        idToPublisher[id] = role;\r\n    }\r\n\r\n    /**\r\n     * @dev See the comment of grantPublisher() above for more info about the string publisher and the bytes32 role.\r\n     * The reason we don't directly call _revokeRole() and the this function is safe is the same reason grantPublisher() doesn't call _grantRole().\r\n     * Use this function to kick someone including msg.sender himself/herself out of the publisher.\r\n     * The function also can only be called by the publisher itself.\r\n     */\r\n    // Tim: added whenNotPaused\r\n    function revokePublisher(string memory publisher, address account) public virtual whenNotPaused {\r\n        bytes32 role = keccak256(abi.encode(publisher));\r\n        revokeRole(role, account);\r\n    }\r\n\r\n    // Tim: added two functions to call hasRole() & getRoleAdmin(), not sure if thye're needed\r\n    // Kirin: They are not needed because they are just imported with AccessControlUpgradeable.sol.\r\n\r\n    function pause() public onlyRole(DEFAULT_ADMIN_ROLE) {\r\n        _pause();\r\n    }\r\n\r\n    function unpause() public onlyRole(DEFAULT_ADMIN_ROLE) {\r\n        _unpause();\r\n    }\r\n\r\n    // The publisher of the id would have power to mint the id to whoever they want.\r\n    function mint(address to, uint256 id, uint256 amount, bytes memory data, uint256 revenueRate)\r\n        public\r\n        whenNotPaused\r\n        onlyRole(idToPublisher[id])\r\n    {\r\n        require(id < currentId, \"ERC1155: Requested id doesn't exist.\");\r\n        publisherRevenueFeeRates[id].revenueFeeRate = revenueRate;\r\n        publisherRevenueFeeRates[id].publisher = msg.sender;\r\n        _mint(to, id, amount, data);\r\n    }\r\n\r\n    function mintBatch(address to, uint256[] memory ids, uint256[] memory amounts, bytes memory data, uint256[] memory revenueFeeRates)\r\n        public\r\n        whenNotPaused\r\n        onlyPublisherBatch(ids)\r\n    {\r\n        require(revenueFeeRates.length == ids.length && revenueFeeRates.length == amounts.length, \"ERC1155: revenues and ids/amounts length mismatch\");\r\n        for (uint256 i = 0 ; i < ids.length ; ++i) {\r\n            publisherRevenueFeeRates[ids[i]].revenueFeeRate = revenueFeeRates[i];\r\n            publisherRevenueFeeRates[ids[i]].publisher = msg.sender;\r\n        }\r\n        _mintBatch(to, ids, amounts, data);\r\n    }\r\n\r\n    // Tim: added burn() & burnBatch()\r\n    function burn(address from, uint256 id, uint256 amount) public override(ERC1155BurnableUpgradeable) whenNotPaused {\r\n\r\n        require(balanceOf(from, id) - listedBalanceOf(from, id) >= amount); // \r\n\r\n        super.burn(from, id, amount);\r\n    }\r\n\r\n    function burnBatch(address from, uint256[] memory ids, uint256[] memory amounts) public override(ERC1155BurnableUpgradeable) whenNotPaused {\r\n\r\n        for (uint256 i = 0 ; i < ids.length ; ++i) { // \r\n            require(balanceOf(from, ids[i]) - listedBalanceOf(from, ids[i]) >= amounts[i]);\r\n        }\r\n\r\n        super.burnBatch(from, ids, amounts);\r\n    }\r\n\r\n    function _beforeTokenTransfer(address operator, address from, address to, uint256[] memory ids, uint256[] memory amounts, bytes memory data)\r\n        internal\r\n        whenNotPaused\r\n        override(ERC1155Upgradeable, ERC1155SupplyUpgradeable)\r\n    {\r\n        \r\n        super._beforeTokenTransfer(operator, from, to, ids, amounts, data);\r\n    }\r\n\r\n    // Tim: added transfer() & transferBatch()\r\n    function transfer(address from, address to, uint256 id, uint256 amount, bytes memory data) public {\r\n        require(balanceOf(from, id) - listedBalanceOf(from, id) >= amount, \"Insufficient balance to transfer\");// \r\n        super.safeTransferFrom(from, to, id, amount, data);\r\n    }\r\n\r\n    function transferBatch(address from, address to, uint256[] memory ids, uint256[] memory amounts, bytes memory data) public {\r\n        for (uint256 i = 0 ; i < ids.length ; ++i) { // \r\n            require(balanceOf(from, ids[i]) - listedBalanceOf(from, ids[i]) >= amounts[i], \"Insufficient balance to transfer\");\r\n        }\r\n        super.safeBatchTransferFrom(from, to, ids, amounts, data);\r\n    }\r\n\r\n    // Tim: added balanceOf() & balanceOfBatch()\r\n    function balanceOf(address account, uint256 id) \r\n        public\r\n        view\r\n        virtual\r\n        override(ERC1155Upgradeable)\r\n        returns(uint256)\r\n    {\r\n        return super.balanceOf(account, id);\r\n    }\r\n\r\n    function balanceOfBatch(address[] memory accounts, uint256[] memory ids)\r\n        public\r\n        view\r\n        virtual\r\n        override(ERC1155Upgradeable)\r\n        returns (uint256[] memory)\r\n    {\r\n        return super.balanceOfBatch(accounts, ids) ;\r\n    }\r\n\r\n    // Tim: added setApprovalForAll() & isApprovedForAll()\r\n    function setApprovalForAll(address operator, bool approved) public override(ERC1155Upgradeable) whenNotPaused {\r\n        super.setApprovalForAll(operator, approved);\r\n    }\r\n\r\n    function isApprovedForAll(address account, address operator) public view override(ERC1155Upgradeable) returns (bool) {\r\n        return super.isApprovedForAll(account, operator);\r\n    }\r\n\r\n    // Tim: added getIdSupply()\r\n    function getIdSupply(uint256 id) public view returns (uint256) {\r\n        return super.totalSupply(id);\r\n    }\r\n\r\n    function changeMetadataUrl(uint256 id, string calldata newMetadataUrl) public onlyRole(DEFAULT_ADMIN_ROLE) {\r\n        idToMetadataUrl[id] = newMetadataUrl;\r\n    }\r\n\r\n    function changeBookKeySecret(address user, uint256 id, string calldata key) public onlyRole(DEFAULT_ADMIN_ROLE) {\r\n        userToBookKeySecret[user][id] = key;\r\n    }\r\n\r\n    // ----------------------- below are market functions -----------------------\r\n/*\r\n    function checkIsBuyer(uint256 id, address seller, address buyer) public returns (int256) {\r\n        (bool ok, bytes memory data) = market.delegatecall(\r\n            abi.encodeWithSignature(\"checkIsBuyer(uint256,address,address)\", id, seller, buyer)\r\n        );\r\n        require(ok);\r\n        return abi.decode(data, (int256));\r\n    }\r\n\r\n    // Tim:  ID \r\n    function listedBalanceOf(address account, uint256 id) public view returns(uint256) {\r\n        return listings[id][account].listedBalance;\r\n    }\r\n\r\n    // Tim: \r\n    function listEBook(uint256 id, address seller, uint256 price, uint256 amount) public {\r\n        (bool ok, ) = market.delegatecall(\r\n            abi.encodeWithSignature(\"listEBook(uint256,address,uint256,uint256)\", id, seller, price, amount)\r\n        );\r\n        require(ok);\r\n    }\r\n\r\n    // Tim: \r\n    function modifyPrice(uint256 id, address seller, uint256 price) public {\r\n        (bool ok, ) = market.delegatecall(\r\n            abi.encodeWithSignature(\"modifyPrice(uint256,address,uint256)\", id, seller, price)\r\n        );\r\n        require(ok);\r\n    }\r\n\r\n    // Tim: \r\n    function cancelListing(uint256 id, address seller, uint256 amount) public {\r\n        (bool ok, ) = market.delegatecall(\r\n            abi.encodeWithSignature(\"cancelListing(uint256,address,uint256)\", id, seller, amount)\r\n        );\r\n        require(ok);\r\n    }\r\n\r\n    // Tim: \r\n    function determineBuyer(address seller, address buyer, uint256 id) public onlyRole(DEFAULT_ADMIN_ROLE) {\r\n        (bool ok, ) = market.delegatecall(\r\n            abi.encodeWithSignature(\"cancelListing(address,address,uint256)\", seller, buyer, id)\r\n        );\r\n        require(ok);\r\n    }\r\n\r\n    // Tim:  buyers \r\n    function purchaseEBook(uint256 id, address seller) public payable {\r\n        int256 index = checkIsBuyer(id, seller, msg.sender);\r\n        (bool ok, ) = market.delegatecall(\r\n            abi.encodeWithSignature(\"purchaseEBook(uint256,address,int256)\", id, seller, index)\r\n        );\r\n        require(ok);\r\n    }\r\n*/\r\n    function changeMarketFee(uint16 newMarketFee) public onlyRole(DEFAULT_ADMIN_ROLE) {\r\n        marketFeeRate = newMarketFee;\r\n    }\r\n\r\n    function changeGnosisSafeAddress(address payable newAddr) public onlyRole(DEFAULT_ADMIN_ROLE) {\r\n        gnosisSafeAddress = newAddr;\r\n    }\r\n\r\n    //  Tim: ( determineBuyer )\r\n    function _grantApprovalToContract(address seller) private {\r\n        super._setApprovalForAll(seller, address(this), true);\r\n    }\r\n\r\n    // Tim: ( purchaseEBook )\r\n    function _revokeApprovalFromContract(address seller) private {\r\n        super._setApprovalForAll(seller, address(this), false);\r\n    }\r\n\r\n    // Tim: \r\n    function checkIsBuyer(uint256 id, address seller, address buyer) public view returns (int256) {\r\n\r\n        uint256 length = listings[id][seller].buyers.length;\r\n        address[] memory buyers = listings[id][seller].buyers;\r\n        \r\n        for (uint256 i = 0 ; i < length ; ++i) {\r\n            if (buyers[i] == buyer) {\r\n                return int256(i);\r\n            }\r\n        }\r\n\r\n        return -1;\r\n    }\r\n\r\n    // Tim:  ID \r\n    function listedBalanceOf(address account, uint256 id) public view virtual returns(uint256) {\r\n        return listings[id][account].listedBalance;\r\n    }\r\n\r\n    // Tim:  ID \r\n    function getPrice(uint256 id, address seller) public view returns (uint256) {\r\n        return listings[id][seller].price;\r\n    }\r\n\r\n    // Tim: \r\n    function listEBook(uint256 id, address seller, uint256 price, uint256 amount) public virtual whenNotPaused isIdExisted(id) IsPriceOrAmountValid(price) IsPriceOrAmountValid(amount) isAddressValid(seller) isApproved(seller) {\r\n        require(balanceOf(seller, id) - listings[id][seller].listedBalance >= amount, \"Insefficient balance to list\"); //  -  >= \r\n\r\n        if (listings[id][seller].buyerCounts == 0) {\r\n            listings[id][seller].price = price;\r\n        }\r\n\r\n        listings[id][seller].listedBalance += amount;\r\n\r\n        emit EBookListed(id, amount, price, seller);\r\n    }\r\n\r\n    // Tim: \r\n    function modifyPrice(uint256 id, address seller, uint256 price) public virtual whenNotPaused isIdExisted(id) IsPriceOrAmountValid(price) isAddressValid(seller) isApproved(seller) IsEBookAvailableOnOrder(id, seller) {\r\n        require(listings[id][seller].buyerCounts == 0, \"Buyer has determined\"); //  determineBuyer\r\n\r\n        uint256 originalPrice = listings[id][seller].price;\r\n        listings[id][seller].price = price;\r\n\r\n        emit PriceModified (id, originalPrice, price, seller, msg.sender);\r\n    }\r\n\r\n    // Tim: \r\n    function cancelListing(uint256 id, address seller, uint256 amount) public virtual whenNotPaused isIdExisted(id) IsPriceOrAmountValid(amount) isAddressValid(seller) isApproved(seller) IsEBookAvailableOnOrder(id, seller) {\r\n        require(listings[id][seller].listedBalance - listings[id][seller].buyerCounts >= amount, \"Exceeded amount to unlist\"); //  >= \r\n\r\n        unchecked {\r\n            listings[id][seller].listedBalance -= amount;\r\n        }\r\n\r\n        if (listings[id][seller].listedBalance == 0) {\r\n            delete listings[id][seller];\r\n        }\r\n\r\n        emit ListingCancelled(id, seller, amount, msg.sender);\r\n    }\r\n\r\n    // Tim: \r\n    function determineBuyer(address seller, address buyer, uint256 id) public virtual whenNotPaused onlyRole(DEFAULT_ADMIN_ROLE) isIdExisted(id) isAddressValid(seller) isAddressValid(buyer) {\r\n        require(listings[id][seller].listedBalance > listings[id][seller].buyerCounts, \"Order all fulfilled\"); // \r\n\r\n        listings[id][seller].buyers.push(buyer);\r\n        \r\n        if (listings[id][seller].buyerCounts == 0) { // \r\n            _grantApprovalToContract(seller);\r\n        }\r\n\r\n        listings[id][seller].buyerCounts ++;\r\n\r\n        emit BuyerDetermined(id, seller, buyer);\r\n    }\r\n\r\n    // Tim:  buyers \r\nfunction purchaseEBook(uint256 id, address payable seller) public payable virtual whenNotPaused isIdExisted(id) isAddressValid(seller) IsEBookAvailableOnOrder(id, seller) {\r\n        \r\n        // \r\n        address payable buyer = payable(msg.sender);\r\n        int256 index = checkIsBuyer(id, seller, buyer);\r\n        require(index != -1, \"not buyer\");\r\n\r\n        // \r\n        uint256 price = listings[id][seller].price; // \r\n\r\n        uint256 publisherRevenueFee = price * publisherRevenueFeeRates[id].revenueFeeRate / 1000; //  =  *  / 1000\r\n        uint256 marketFee = price * marketFeeRate / 1000; //  =  *  / 1000\r\n\r\n        uint256 total = price + publisherRevenueFee + marketFee; //  =  +  + \r\n        require(msg.value >= total, \"Insufficient Ether\");\r\n\r\n        // \r\n        listings[id][seller].listedBalance --;\r\n        listings[id][seller].buyerCounts --;\r\n        listings[id][seller].buyers[uint256(index)] = address(0);\r\n\r\n        // \r\n        super._safeTransferFrom(seller, buyer, id, 1, \"\"); // \r\n        \r\n        seller.transfer(price); // \r\n\r\n        gnosisSafeAddress.transfer(marketFee); // \r\n\r\n        address payable publisher = payable(publisherRevenueFeeRates[id].publisher);\r\n        publisher.transfer(publisherRevenueFee); // \r\n\r\n        if (msg.value - total > 0) { //  ETH \r\n            buyer.transfer(msg.value - total);\r\n        }\r\n\r\n        if (listings[id][seller].buyerCounts == 0) { // \r\n            _revokeApprovalFromContract(seller);\r\n        }\r\n\r\n        if (listings[id][seller].listedBalance == 0) { // \r\n            delete listings[id][seller];\r\n        }\r\n\r\n        emit TransactionMade(id, seller, buyer);\r\n    }\r\n\r\n    function supportsInterface(bytes4 interfaceId)\r\n        public\r\n        view\r\n        override(ERC1155Upgradeable, AccessControlUpgradeable)\r\n        returns (bool)\r\n    {\r\n        return super.supportsInterface(interfaceId);\r\n    }\r\n}",
  "sourcePath": "C:\\Users\\TimOu_0911\\Desktop\\v2\\The_Ohara_Protocol\\contracts\\The_Ohara_Protocol_v2.sol",
  "compiler": {
    "name": "solc",
    "version": "0.8.19+commit.7dd6d404.Emscripten.clang"
  },
  "schemaVersion": "3.4.14",
  "updatedAt": "2023-07-24T05:43:16.593Z",
  "devdoc": {
    "custom:security-contact": "dodo920306@gmail.com",
    "events": {
      "ApprovalForAll(address,address,bool)": {
        "details": "Emitted when `account` grants or revokes permission to `operator` to transfer their tokens, according to `approved`."
      },
      "Initialized(uint8)": {
        "details": "Triggered when the contract has been initialized or reinitialized."
      },
      "Paused(address)": {
        "details": "Emitted when the pause is triggered by `account`."
      },
      "RoleAdminChanged(bytes32,bytes32,bytes32)": {
        "details": "Emitted when `newAdminRole` is set as ``role``'s admin role, replacing `previousAdminRole` `DEFAULT_ADMIN_ROLE` is the starting admin for all roles, despite {RoleAdminChanged} not being emitted signaling this. _Available since v3.1._"
      },
      "RoleGranted(bytes32,address,address)": {
        "details": "Emitted when `account` is granted `role`. `sender` is the account that originated the contract call, an admin role bearer except when using {AccessControl-_setupRole}."
      },
      "RoleRevoked(bytes32,address,address)": {
        "details": "Emitted when `account` is revoked `role`. `sender` is the account that originated the contract call:   - if using `revokeRole`, it is the admin role bearer   - if using `renounceRole`, it is the role bearer (i.e. `account`)"
      },
      "TransferBatch(address,address,address,uint256[],uint256[])": {
        "details": "Equivalent to multiple {TransferSingle} events, where `operator`, `from` and `to` are the same for all transfers."
      },
      "TransferSingle(address,address,address,uint256,uint256)": {
        "details": "Emitted when `value` tokens of token type `id` are transferred from `from` to `to` by `operator`."
      },
      "URI(string,uint256)": {
        "details": "Emitted when the URI for token type `id` changes to `value`, if it is a non-programmatic URI. If an {URI} event was emitted for `id`, the standard https://eips.ethereum.org/EIPS/eip-1155#metadata-extensions[guarantees] that `value` will equal the value returned by {IERC1155MetadataURI-uri}."
      },
      "Unpaused(address)": {
        "details": "Emitted when the pause is lifted by `account`."
      }
    },
    "kind": "dev",
    "methods": {
      "balanceOf(address,uint256)": {
        "details": "See {IERC1155-balanceOf}. Requirements: - `account` cannot be the zero address."
      },
      "balanceOfBatch(address[],uint256[])": {
        "details": "See {IERC1155-balanceOfBatch}. Requirements: - `accounts` and `ids` must have the same length."
      },
      "constructor": {
        "custom:oz-upgrades-unsafe-allow": "constructor"
      },
      "exists(uint256)": {
        "details": "Indicates whether any token exist with a given id, or not."
      },
      "getRoleAdmin(bytes32)": {
        "details": "Returns the admin role that controls `role`. See {grantRole} and {revokeRole}. To change a role's admin, use {_setRoleAdmin}."
      },
      "grantPublisher(string,address)": {
        "details": "The publisher who wants to claim an account belongs to them must use this function with the magic string that represents themselves.  The function will uses keccak256 solidity function to hash this string, but before that, it must be represented as bytes32. The type conversion from \"string memory\" to \"bytes32\" isn't allowed, so we use abi.encode() here. See https://ethereum.stackexchange.com/questions/119583/when-to-use-abi-encode-abi-encodepacked-or-abi-encodewithsignature-in-solidity for the reason of this selection.  After that, we use grantRole() function from AccessControl, the reason we don't directly use _grantRole() here is because the onlyRole(getRoleAdmin(role)) should also be passed in this operation, and since grantRole() has that modifier originally, the current function doesn't require any modifier yet, and there's no need to be afraid that anyone hash others' magic string and directly call grantRole() because there's no way he/she can be the admin.  If it's the first member to be added in the publisher, the msg.sender must be DEFAULT_ADMIN_ROLE to pass onlyRole(getRoleAdmin(role)) for that there's no way to set admin to others. If so, then the function would call _setRoleAdmin() to release the admin power to the publisher itself, indicating that from this point on, only the publisher can manage which accounts can act on its behalf.  The only risk would be that a hacker steal one private key from DEFAULT_ADMIN_ROLE, in that case, the worse he/she can do is grant his/her accounts the publisher role that \"hasn't been registered yet\", for that the admins of the publishers already in the protocol can only be themselves. If so, then the publishers register in the future cannot use the same magic string as the hacker granted himself/herself even if they want. (Basically, it's the same idea as \"This username has already been used. Please try another.\", so the power of DEFAULT_ADMIN_ROLE is basically just register publishers and ids.)"
      },
      "grantRole(bytes32,address)": {
        "details": "Grants `role` to `account`. If `account` had not been already granted `role`, emits a {RoleGranted} event. Requirements: - the caller must have ``role``'s admin role. May emit a {RoleGranted} event."
      },
      "hasRole(bytes32,address)": {
        "details": "Returns `true` if `account` has been granted `role`."
      },
      "isApprovedForAll(address,address)": {
        "details": "See {IERC1155-isApprovedForAll}."
      },
      "paused()": {
        "details": "Returns true if the contract is paused, and false otherwise."
      },
      "renounceRole(bytes32,address)": {
        "details": "Revokes `role` from the calling account. Roles are often managed via {grantRole} and {revokeRole}: this function's purpose is to provide a mechanism for accounts to lose their privileges if they are compromised (such as when a trusted device is misplaced). If the calling account had been revoked `role`, emits a {RoleRevoked} event. Requirements: - the caller must be `account`. May emit a {RoleRevoked} event."
      },
      "revokePublisher(string,address)": {
        "details": "See the comment of grantPublisher() above for more info about the string publisher and the bytes32 role. The reason we don't directly call _revokeRole() and the this function is safe is the same reason grantPublisher() doesn't call _grantRole(). Use this function to kick someone including msg.sender himself/herself out of the publisher. The function also can only be called by the publisher itself."
      },
      "revokeRole(bytes32,address)": {
        "details": "Revokes `role` from `account`. If `account` had been granted `role`, emits a {RoleRevoked} event. Requirements: - the caller must have ``role``'s admin role. May emit a {RoleRevoked} event."
      },
      "safeBatchTransferFrom(address,address,uint256[],uint256[],bytes)": {
        "details": "See {IERC1155-safeBatchTransferFrom}."
      },
      "safeTransferFrom(address,address,uint256,uint256,bytes)": {
        "details": "See {IERC1155-safeTransferFrom}."
      },
      "setApprovalForAll(address,bool)": {
        "details": "See {IERC1155-setApprovalForAll}."
      },
      "setIdToPublisher(uint256,string)": {
        "details": "See the comment of grantPublisher() above for more info about the string publisher and the bytes32 role. Only the old publisher could set the publisher of an id to a new one. Since the default publisher of the id is 0x00, the first publisher of the id must be set by the DEFAULT_ADMIN_ROLE."
      },
      "totalSupply(uint256)": {
        "details": "Total amount of tokens in with a given id."
      },
      "uri(uint256)": {
        "details": "See {IERC1155MetadataURI-uri}. This implementation returns the same URI for *all* token types. It relies on the token type ID substitution mechanism https://eips.ethereum.org/EIPS/eip-1155#metadata[defined in the EIP]. Clients calling this function must replace the `\\{id\\}` substring with the actual token type ID."
      }
    },
    "version": 1
  },
  "userdoc": {
    "kind": "user",
    "methods": {},
    "version": 1
  }
}